S01400004D61696E5F4D4350323531352E737265637F
S11300000C942A000C943F000C943F000C943F0085
S11300100C943F000C943F000C943F000C943F0060
S11300200C943F000C943F000C943F000C943F0050
S11300300C943F000C943F000C943F000C943F0040
S11300400C943F000C943F000C943F000C943F0030
S11300500C943F0011241FBECFE5D8E0DEBFCDBF16
S113006010E0A0E6B0E0E0EFF4E002C005900D92ED
S1130070A836B107D9F70E9421010C9476020C949A
S113008000004130A1F5813089F028F08230C9F0B8
S1130090833011F1089581E090E002C0880F991F28
S11300A06A95E2F79AB3892B8ABB089581E090E0C0
S11300B002C0880F991F6A95E2F797B3892B87BB13
S11300C0089581E090E002C0880F991F6A95E2F7D5
S11300D094B3892B84BB089581E090E002C0880F1B
S11300E0991F6A95E2F791B3892B81BB0895411159
S11300F037C0813091F028F08230D9F0833029F173
S1130100089581E090E002C0880F991F6A95E2F794
S113011080959AB389238ABB089581E090E002C058
S1130120880F991F6A95E2F7809597B3892387BB57
S1130130089581E090E002C0880F991F6A95E2F764
S1130140809594B3892384BB089581E090E002C034
S1130150880F991F6A95E2F7809591B3892381BB33
S113016008954130A1F5813089F028F08230C9F03A
S1130170833011F1089581E090E002C0880F991F47
S11301806A95E2F79BB3892B8BBB089581E090E0DD
S113019002C0880F991F6A95E2F798B3892B88BB30
S11301A0089581E090E002C0880F991F6A95E2F7F4
S11301B095B3892B85BB089581E090E002C0880F38
S11301C0991F6A95E2F792B3892B82BB0895411176
S11301D037C0813091F028F08230D9F0833029F192
S11301E0089581E090E002C0880F991F6A95E2F7B4
S11301F080959BB389238BBB089581E090E002C076
S1130200880F991F6A95E2F7809598B3892388BB74
S1130210089581E090E002C0880F991F6A95E2F783
S1130220809595B3892385BB089581E090E002C051
S1130230880F991F6A95E2F7809592B3892382BB50
S11302400895CF93DF93CDB7DEB728970FB6F89410
S1130250DEBF0FBECDBF0E942A0288E0E0E6F0E0D8
S1130260DE01119601900D928A95E1F78E010F5FE0
S11302701F4F28E041EE57E060E070E080E00E940C
S1130280CE0180E00AC0E1E0F0E0EC0FFD1FE80FD2
S1130290F11D90819F5F90838F5F8830A0F32FE3DF
S11302A08DE093E0215080409040E1F700C00000D1
S11302B0DDCFCF93C82F81E00E94640283E00E94C7
S11302C071028C2F0E94710280E00E947102C82F7B
S11302D080E00E9464028C2FCF910895CF93DF9326
S11302E0D82FC62F81E00E94640282E00E9471022E
S11302F08D2F0E9471028C2F0E94710280E00E9457
S11303006402DF91CF91089581E00E94640280EC41
S11303100E94710280E00E94640208951F93CF93AB
S1130320DF93182FD62FC42F81E00E94640285E04A
S11303300E947102812F0E9471028D2F0E9471020E
S11303408C2F0E94710280E00E946402DF91CF91A1
S11303501F910895CF93DF93D62FC42F682F8AE27D
S11303600E946E016D2F89E20E946E016C2F88E25B
S11303700E946E01DF91CF910895CF93C82F482F2B
S11303804295440F407E60EE8FE00E948E0180E033
S11303900E945901C813FBCFCF910895CF92DF92E9
S11303A0EF92FF920F931F93CF93DF936A017B0128
S11303B0D22F81E00E94640282E00E94710280E3F5
S11303C00E9471028D2F82958695869583700E9476
S11303D07102D701C601689412F8B695A79597954E
S11303E087951694D1F70E9471028C2D8295880FFF
S11303F0807E0E94710280E00E94710280E00E946F
S11304007102DF708D2F0E947102C0E007C0F801F5
S1130410EC0FF11D80810E947102CF5F8C2F90E060
S11304204D2F50E08417950794F380E00E946402F6
S113043081E00E94640281E80E94710280E00E94CF
S11304406402DF91CF911F910F91FF90EF90DF90A5
S1130450CF9008950E9440020E94840164E88FE0D6
S11304600E946E0180E00E9459018430D9F745E072
S113047061EB80E80E94AA0180E00E94BD0108951A
S113048041E065E081E00E94410040E066E081E0F7
S11304900E94410041E066E081E00E94B10041E039
S11304A067E081E00E94410041E064E081E00E9455
S11304B0410041E064E081E00E94B1008EB18E7F92
S11304C08EB980E58DB90895813029F440E064E067
S11304D00E94B100089541E064E081E00E94B1000F
S11304E008958FB9779BFECF8FB10895F894FFCF0D
S10B04F06162636465666768DC
S9030000FC
